{
  "_format": "hh-sol-artifact-1",
  "contractName": "PoolBetting",
  "sourceName": "contracts/PoolBetting.sol",
  "abi": [
    {
      "inputs": [],
      "stateMutability": "nonpayable",
      "type": "constructor"
    },
    {
      "inputs": [
        {
          "internalType": "address",
          "name": "",
          "type": "address"
        }
      ],
      "name": "bets",
      "outputs": [
        {
          "internalType": "uint256",
          "name": "",
          "type": "uint256"
        }
      ],
      "stateMutability": "view",
      "type": "function"
    },
    {
      "inputs": [],
      "name": "enter",
      "outputs": [],
      "stateMutability": "payable",
      "type": "function"
    },
    {
      "inputs": [],
      "name": "getPlayers",
      "outputs": [
        {
          "internalType": "address[]",
          "name": "",
          "type": "address[]"
        }
      ],
      "stateMutability": "view",
      "type": "function"
    },
    {
      "inputs": [],
      "name": "getPot",
      "outputs": [
        {
          "internalType": "uint256",
          "name": "",
          "type": "uint256"
        }
      ],
      "stateMutability": "view",
      "type": "function"
    },
    {
      "inputs": [],
      "name": "manager",
      "outputs": [
        {
          "internalType": "address",
          "name": "",
          "type": "address"
        }
      ],
      "stateMutability": "view",
      "type": "function"
    },
    {
      "inputs": [],
      "name": "pickWinner",
      "outputs": [],
      "stateMutability": "nonpayable",
      "type": "function"
    },
    {
      "inputs": [
        {
          "internalType": "uint256",
          "name": "",
          "type": "uint256"
        }
      ],
      "name": "players",
      "outputs": [
        {
          "internalType": "address",
          "name": "",
          "type": "address"
        }
      ],
      "stateMutability": "view",
      "type": "function"
    }
  ],
  "bytecode": "0x608060405234801561001057600080fd5b50336000806101000a81548173ffffffffffffffffffffffffffffffffffffffff021916908373ffffffffffffffffffffffffffffffffffffffff160217905550610c1d806100606000396000f3fe6080604052600436106100705760003560e01c806389a78f1a1161004e57806389a78f1a146100e25780638b5b9ccc1461011f578063e97dcb621461014a578063f71d96cb1461015457610070565b8063403c9fa814610075578063481c6a75146100a05780635d495aea146100cb575b600080fd5b34801561008157600080fd5b5061008a610191565b60405161009791906109ea565b60405180910390f35b3480156100ac57600080fd5b506100b5610274565b6040516100c2919061094d565b60405180910390f35b3480156100d757600080fd5b506100e0610298565b005b3480156100ee57600080fd5b5061010960048036038101906101049190610772565b6104ca565b60405161011691906109ea565b60405180910390f35b34801561012b57600080fd5b506101346104e2565b6040516101419190610968565b60405180910390f35b610152610570565b005b34801561016057600080fd5b5061017b6004803603810190610176919061079b565b610662565b604051610188919061094d565b60405180910390f35b6000806000905060005b60018054905081101561026c5760026000600183815481106101e6577f4e487b7100000000000000000000000000000000000000000000000000000000600052603260045260246000fd5b9060005260206000200160009054906101000a900473ffffffffffffffffffffffffffffffffffffffff1673ffffffffffffffffffffffffffffffffffffffff1673ffffffffffffffffffffffffffffffffffffffff16815260200190815260200160002054826102579190610a4f565b9150808061026490610ae1565b91505061019b565b508091505090565b60008054906101000a900473ffffffffffffffffffffffffffffffffffffffff1681565b60008054906101000a900473ffffffffffffffffffffffffffffffffffffffff1673ffffffffffffffffffffffffffffffffffffffff163373ffffffffffffffffffffffffffffffffffffffff1614610326576040517f08c379a000000000000000000000000000000000000000000000000000000000815260040161031d9061098a565b60405180910390fd5b60006001805490501161036e576040517f08c379a0000000000000000000000000000000000000000000000000000000008152600401610365906109ca565b60405180910390fd5b6000600180549050426103819190610b2a565b90506000600182815481106103bf577f4e487b7100000000000000000000000000000000000000000000000000000000600052603260045260246000fd5b9060005260206000200160009054906101000a900473ffffffffffffffffffffffffffffffffffffffff16905060006103f6610191565b90508173ffffffffffffffffffffffffffffffffffffffff166108fc829081150290604051600060405180830381858888f1935050505015801561043e573d6000803e3d6000fd5b50600067ffffffffffffffff811115610480577f4e487b7100000000000000000000000000000000000000000000000000000000600052604160045260246000fd5b6040519080825280602002602001820160405280156104ae5781602001602082028036833780820191505090505b50600190805190602001906104c49291906106a1565b50505050565b60026020528060005260406000206000915090505481565b6060600180548060200260200160405190810160405280929190818152602001828054801561056657602002820191906000526020600020905b8160009054906101000a900473ffffffffffffffffffffffffffffffffffffffff1673ffffffffffffffffffffffffffffffffffffffff168152602001906001019080831161051c575b5050505050905090565b662386f26fc1000034116105b9576040517f08c379a00000000000000000000000000000000000000000000000000000000081526004016105b0906109aa565b60405180910390fd5b6001339080600181540180825580915050600190039060005260206000200160009091909190916101000a81548173ffffffffffffffffffffffffffffffffffffffff021916908373ffffffffffffffffffffffffffffffffffffffff16021790555034600260003373ffffffffffffffffffffffffffffffffffffffff1673ffffffffffffffffffffffffffffffffffffffff16815260200190815260200160002081905550565b6001818154811061067257600080fd5b906000526020600020016000915054906101000a900473ffffffffffffffffffffffffffffffffffffffff1681565b82805482825590600052602060002090810192821561071a579160200282015b828111156107195782518260006101000a81548173ffffffffffffffffffffffffffffffffffffffff021916908373ffffffffffffffffffffffffffffffffffffffff160217905550916020019190600101906106c1565b5b509050610727919061072b565b5090565b5b8082111561074457600081600090555060010161072c565b5090565b60008135905061075781610bb9565b92915050565b60008135905061076c81610bd0565b92915050565b60006020828403121561078457600080fd5b600061079284828501610748565b91505092915050565b6000602082840312156107ad57600080fd5b60006107bb8482850161075d565b91505092915050565b60006107d083836107dc565b60208301905092915050565b6107e581610aa5565b82525050565b6107f481610aa5565b82525050565b600061080582610a15565b61080f8185610a2d565b935061081a83610a05565b8060005b8381101561084b57815161083288826107c4565b975061083d83610a20565b92505060018101905061081e565b5085935050505092915050565b6000610865602783610a3e565b91507f4f6e6c7920746865206d616e616765722063616e2063616c6c2074686973206660008301527f756e6374696f6e000000000000000000000000000000000000000000000000006020830152604082019050919050565b60006108cb601983610a3e565b91507f4d696e696d756d2062657420697320302e3031206574686572000000000000006000830152602082019050919050565b600061090b601683610a3e565b91507f4e6f20706c617965727320696e2074686520706f6f6c000000000000000000006000830152602082019050919050565b61094781610ad7565b82525050565b600060208201905061096260008301846107eb565b92915050565b6000602082019050818103600083015261098281846107fa565b905092915050565b600060208201905081810360008301526109a381610858565b9050919050565b600060208201905081810360008301526109c3816108be565b9050919050565b600060208201905081810360008301526109e3816108fe565b9050919050565b60006020820190506109ff600083018461093e565b92915050565b6000819050602082019050919050565b600081519050919050565b6000602082019050919050565b600082825260208201905092915050565b600082825260208201905092915050565b6000610a5a82610ad7565b9150610a6583610ad7565b9250827fffffffffffffffffffffffffffffffffffffffffffffffffffffffffffffffff03821115610a9a57610a99610b5b565b5b828201905092915050565b6000610ab082610ab7565b9050919050565b600073ffffffffffffffffffffffffffffffffffffffff82169050919050565b6000819050919050565b6000610aec82610ad7565b91507fffffffffffffffffffffffffffffffffffffffffffffffffffffffffffffffff821415610b1f57610b1e610b5b565b5b600182019050919050565b6000610b3582610ad7565b9150610b4083610ad7565b925082610b5057610b4f610b8a565b5b828206905092915050565b7f4e487b7100000000000000000000000000000000000000000000000000000000600052601160045260246000fd5b7f4e487b7100000000000000000000000000000000000000000000000000000000600052601260045260246000fd5b610bc281610aa5565b8114610bcd57600080fd5b50565b610bd981610ad7565b8114610be457600080fd5b5056fea26469706673582212200bb45e5a0e4ff9e1b284ff0e2f41c1571eca6e7cee3a09c314859efd1de509fe64736f6c63430008000033",
  "linkReferences": {},
  "deployedLinkReferences": {}
}